S01500004C696E7578636E635F666C6173682E7331392E
S113000000300020550C0000950800009508000001
S113001000000000000000000000000000000000DC
S1130020000000000000000000000000950800002F
S11300300000000000000000950800009508000082
S1130040310800009508000095080000950800009C
S11300509508000095080000950800009508000028
S11300609508000095080000950800009508000018
S11300709508000095080000950800009508000008
S113008095080000950800009508000095080000F8
S11300909508000095080000150800009508000068
S11300A095080000950800009508000095080000D8
S11300B095080000950800009508000095080000C8
S1130400FFFFFFFFFFFFFFFFFFFFFFFF7EFBFFFF7D
S11308006812000000F0FF1F10F0FF1F20F0FF1F10
S1130810C8F0FF1F08B5054A8E235B00D05801219C
S11308200143D15000F0EEF808BDC046007003400B
S113083070B5154A4021137884258B4313491370EE
S11308400868134B8026C443680075040C621D506D
S11308501E58202426431E508C2046009D51862578
S11308609C5168001E588024E40526438E251E50A2
S113087068001E5834431C501478402323431370DB
S113088001220A6470BDC0460060074020F0FF1FCB
S11308900080004000BE70472A4B2B4A2B49D150A0
S11308A02B4B2C4A8021985889000143995080226F
S11308B029495002294A58509858294901409950C9
S11308C01868C0210903014319609858254901405B
S11308D0995098588021890401439950224A234908
S11308E0002393642420D364214A4870802010702C
S11308F09A200870CA787F200240CA7003220A71C5
S113090010204B718B791842FCD118480C21837943
S1130910164A0B40082BFAD1402050710C219379D0
S11309200B40082BFBD11148402183790F4A19420F
S1130930FBD01A2010700C2193790B400C2BFBD1A7
S11309407047C046080D000000E000E00000000011
S1130950007004403810000044100000041000002F
S1130960FFFFFEFFFFFFFFFE009004400040064033
S11309700050064008B502490C2200F0D3FB08BD24
S113098080F0FF1F08B5011C02480C220C3000F057
S1130990C9FB08BD80F0FF1F014B18607047C046BB
S11309A000F0FF1F124A0023111C08C19361536019
S11309B0D3614B601362D3605362136193625361DA
S11309C0D3620C480C4B0122102142608260C26049
S11309D099600A4B20208022986050019860084A50
S11309E0802040009060996080218B009360704764
S11309F080F0FF1F00F0FF1FC0F00F4000F00F4019
S1130A0080F00F40664B674A30B518689C691168DE
S1130A1060400131450200D488E0186800249861E0
S1130A20196354600D1C002D50D15468D86B0028F4
S1130A3057D0002C00D07EE01C68DD686019186077
S1130A405C68DD696C40640200D46DE05C6800257C
S1130A50DC6159639560081C002863D00138586331
S1130A60002800D188E080254F486C0144609468D8
S1130A701D6C002D4DD0002C00D06CE05D681C690D
S1130A80281958609C681D6A6C4064023BD4996BB9
S1130A90002906D001399963002966D0424C102000
S1130AA06060D1685D6C002D24D0002909D0D86A1B
S1130AB000218022596494003C4D002800DA6CE047
S1130AC0AC60996858690A189A6030BD013D1D638D
S1130AD0002D39D0364CD86B102565605468002839
S1130AE0A7D1D8685D6A6840A6D5DD680120D863BF
S1130AF05D629EE75A69D86A4240E2D55D69012485
S1130B005C64DD62D1E79868002418629963D4605C
S1130B10BEE718699D6A6840B0D51D690120186454
S1130B209D62A8E79468A3E7586B95E71D6B002DB9
S1130B3000D17AE7CAE7586A0024DC63002823DB83
S1130B4019482025856077E7194810240125556048
S1130B50846001246AE7986A00241C64002817DB77
S1130B60802512486C00846088E70121D1600E4A18
S1130B7010259560012195E70120906080250A48A1
S1130B806C018460012473E7074C2025656053E7FA
S1130B90802506486C00446070E76C6091E7C046AD
S1130BA080F0FF1F00F0FF1F00F00F4080F00F40A7
S1130BB0C0F00F40002934D00123002210B4884231
S1130BC02CD301242407A14204D2814202D2090178
S1130BD01B01F8E7E400A14204D2814202D2490099
S1130BE05B00F8E7884201D3401A1A434C08A0423C
S1130BF002D3001B5C0822438C08A04202D3001BD2
S1130C009C082243CC08A04202D3001BDC082243E8
S1130C10002803D01B0901D00909E3E7101C10BC0C
S1130C207047002801D00020C04307B4024802A145
S1130C304018029003BDC046190000000029F0D0FE
S1130C4003B5FFF7B9FF0EBC4243891A1847C046E3
S1130C507047C046002103E00A4B5B5843500431FF
S1130C6009480A4B42189A42F6D3094A02E0002383
S1130C7013600432074B9A42F9D3FFF70DFE00F0DC
S1130C800BF870476812000000F0FF1F10F0FF1F00
S1130C9020F0FF1FC8F0FF1FF8B5E948E94B5F4695
S1130CA056464D4644461958F0B4F0246501E64AC8
S1130CB00D4380271D50844678001060E34950603E
S1130CC09060E34AE34EC8601060906050617469BC
S1130CD00725AC43E04F74617C690825AC43DF4DC4
S1130CE07C616F692524A743DD4C6F6120616061DD
S1130CF020636063D44CDB4FE060DB4C0860B84693
S1130D00086248625060D0601061BC600824C0274B
S1130D10B460BC00D04FBC6001271A24BB46AC6051
S1130D203C1CCD4F7C608024A70144466760676902
S1130D30CE4CB946271C4C46274344466761776925
S1130D403C1C08273C437461C34C6769C84CB946D2
S1130D50271C4C462743C04C67616F693C1C1A270B
S1130D603C436C6164461F59A024B94667014C4654
S1130D70274364461F51B44FB864F86450607469E3
S1130D80C0221203144374616C6902273C436C61F2
S1130D907260B84A6F609A5880242704B54C3A436D
S1130DA01A51C027B44A7C0014598027FF033C43DE
S1130DB0C0277F00D45114688022D703AE4A3C4335
S1130DC01460AE4C00278C22276052000027A750E5
S1130DD09146AA4FAA4C88225200BC504A4602248B
S1130DE0BC50A64A8E245F46640017514F46D25920
S1130DF05C46A24F22434C463A519E4F0222DC5994
S1130E001443DC5182277C011A59171C07431F51D4
S1130E10C022994C5200A4585F463C43964FBC50A4
S1130E203C685A4614433C60964A974F974C175077
S1130E3082204700D4518420802740007F0417502B
S1130E402027175092488627834678005F4617501C
S1130E509048002707701027381C8E4F3870387858
S1130E60802782467F425046BB4607438948FFB2EB
S1130E700770202788203F19400017508A277800E0
S1130E80814F175080204704484617502027175099
S1130E9081488E277F00D0517E4A002050707D48C3
S1130EA01127477042785F463A43D2B242707B4A78
S1130EB080279858FF0338439850624698588027F3
S1130EC03A01024360461A50754B80229000002775
S1130ED01F70C861886148610861242159701F78B6
S1130EE040223A431A70FFF75DFD802308274146EC
S1130EF098014860221DB760AF6000252564A846AC
S1130F00554F261C91461FE0002030643368654A23
S1130F10934200D1ECE067D863498B4200D1CDE025
S1130F206249A02088460102281CFFF787FE01358C
S1130F30002903D1802347491A03CA6041485C4B06
S1130F405522AA21C250C1503B69190717D5012067
S1130F507860236C002BD7D1414600293BD1FFF7A1
S1130F6021FD80203F4B82015A603A483B4A0821C8
S1130F70816091600022F02390461902D4E7201C7E
S1130F802430FFF7F7FC354A01231169480918405A
S1130F901169126984460420834610406246104356
S1130FA019402C4A49000843116982461940C80077
S1130FB051460143106912698007C00F00010843BC
S1130FC05946114084464A1E9141480162460243F3
S1130FD02263BB60BDE70123594288444046002890
S1130FE0C8D0A02109029FE732498B421BD0324866
S1130FF0834295D13368DA4332627168C8437062C0
S1131000B368DA43B262F168C843F0623369DA4321
S113101032637169C8437063B369DA43B263F169D7
S1131020C843F0637CE7FFF7BDFC80230D499A01B8
S11310304A60084B094A08209860906070E7C046EF
S1131040381000000070044000A0044000B00440C8
S113105000C0044040F00F4080F00F40C0F00F404B
S11310600090044000F00F403010000030300000C9
S1131070010300003C10000000E100E000700340A8
S11310802B010000008000400560074020F0FF1F96
S113109080021AE0001002408020526034100000E8
S11310A0006007403E4346473E434D441F4E000008
S11310B0041100003E5253543E5453544846FFF723
S11310C061FC336980208101DA0722D512488160EE
S11310D00821124A98071AD5516059070ED5104AAB
S11310E0082050601A070ED40D4B0221996017E7AF
S11310F07068FFF751FCFFF755FC11E70849082019
S113110088601A07F0D5064A0220506008E791600B
S1131110E3E7014A5160DBE700F00F4040F00F4085
S1131120C0F00F40F0B54F464646C0B40F2A72D9FE
S11311300B1C03439C0700D090E0171C103F3C0994
S1131140013427010C683B1C0460103BDE064B682D
S1131150CD1943608C68F60F8460CB68041CC360AF
S11311600B1C103310349D4227D0002E0BD019686D
S113117021605E6866609968A160DE681033E6608D
S113118010349D4219D0196821605E6866609968C0
S1131190A160DE68191CE6601B69261C23614C698A
S11311A074618B69B361CC691031F4610B1C103626
S11311B0341C103310349D42E5D13F180F21B8463A
S11311C0114003294DD904398E08B3000433EC18B7
S11311D0A446043B2C1C5F0708CC4146B14608C119
S11311E0FE0F64450FD0002E03D080CC80C164452F
S11311F009D0271C08CF0E1C08C664684C603C1D2F
S1131200311D6445F5D1494601318E000327AD19DE
S11312103A40464401E00D1C061C002A1AD02F78DF
S1131220B218F343D1180124377001360C4001354C
S113123096420FD0002C05D02B780135337001363F
S1131240964207D0297831706C7802357470023672
S11312509642F7D10CBC90469946F0BD061C0D1C75
S10B1260DDE73E1C0A1CD8E77F
S11312680100000001000000000000000000000070
S11312786812000000F0FF1F1000000000000000CA
S10B128800000000000000005A
S9030C559B
