S01500004C696E7578636E635F666C6173682E7331392E
S113000000300020E90C000095080000950800006D
S113001000000000000000000000000000000000DC
S1130020000000000000000000000000950800002F
S11300300000000000000000950800009508000082
S1130040310800009508000095080000950800009C
S11300509508000095080000950800009508000028
S11300609508000095080000950800009508000018
S11300709508000095080000950800009508000008
S113008095080000950800009508000095080000F8
S11300909508000095080000150800009508000068
S11300A095080000950800009508000095080000D8
S11300B095080000950800009508000095080000C8
S1130400FFFFFFFFFFFFFFFFFFFFFFFF7EFBFFFF7D
S11308001015000000F0FF1F14F0FF1F20F0FF1F61
S1130810E0F0FF1F08B5054A8E235B00D058012184
S11308200143D15000F0F8F808BDC0460070034001
S113083070B5154A4021137884258B4313491370EE
S11308400868134B8026C443680075040C621D506D
S11308501E58202426431E508C2046009D51862578
S11308609C5168001E588024E40526438E251E50A2
S113087068001E5834431C501478402323431370DB
S113088001220A6470BDC0460060074020F0FF1FCB
S11308900080004000BE70472A4B2B4A2B49D150A0
S11308A02B4B2C4A8021985889000143995080226F
S11308B029495002294A58509858294901409950C9
S11308C01868C0210903014319609858254901405B
S11308D0995098588021890401439950224A234908
S11308E0002393642420D364214A4870802010702C
S11308F09A200870CA787F200240CA7003220A71C5
S113090010204B718B791842FCD118480C21837943
S1130910164A0B40082BFAD1402050710C219379D0
S11309200B40082BFBD11148402183790F4A19420F
S1130930FBD01A2010700C2193790B400C2BFBD1A7
S11309407047C046080D000000E000E00000000011
S1130950007004403810000044100000041000002F
S1130960FFFFFEFFFFFFFFFE009004400040064033
S11309700050064008B50249102200F027FD08BDCA
S113098080F0FF1F08B5011C02481022103000F04F
S11309901DFD08BD80F0FF1F014B18607047C04665
S11309A000F0FF1F184A0023111C08C104315360D2
S11309B008C10B60136213615362536193629361C4
S11309C0D362D361136353639363D3630F48104AB1
S11309D0012383604360C3600361022193600D4877
S11309E080239160D903802381601904802381606E
S11309F05903802381609903816080208021C30092
S1130A00080193609060704780F0FF1F00F0FF1FA3
S1130A1040F00F4000F10F40874B884A30B518680A
S1130A201C6A116860400131450234D518680024FD
S1130A301862196454600D1C002D2FD0013D1D64F3
S1130A40002D00D1C8E07E4D186D01246C605468FF
S1130A50002827D118691D6B684000D5D6E01C68B2
S1130A601D69601918605C685D6A6C40640250D549
S1130A705C6800255C6259649560081C00281DD0E0
S1130A8001385864002800D19EE080256D48EC03AD
S1130A904460946813E01D6C002DCFD15468186D28
S1130AA00028D7D0002CDAD0186B00241C6500284D
S1130AB000DAB0E0624802258560D0E794685D6D95
S1130AC0002D1DD0002C00D08CE05D685C692819D5
S1130AD058609C689D6A6C40640263D59C680025DC
S1130AE09C629964D560081C002814D0013898646D
S1130AF0002861D0802553486C034460D4680BE01F
S1130B0058695D6B6840E0D55D69012058655D6397
S1130B10D8E7586CB2E7D4689D6D002D39D0002C0D
S1130B2000D069E09D689C6928199860DC68DD6ADA
S1130B306C40640227D4D96C002907D00139D964E8
S1130B40002931D080243E48E50045601169DA6D02
S1130B50002A0FD0002908D0DD6B00218024D9653C
S1130B602001374A002D5ADB9060D968DD694C19A1
S1130B70DC6030BDDD69DC6B6540F6D5DA690120E7
S1130B80D865DA63E6E7D8680024D862D9641461CA
S1130B90D2E798699D6B6840C4D59D69012098652A
S1130BA09D63BCE7986C9FE7012111612448802272
S1130BB0D50085600121CAE70120D0608025214845
S1130BC06C0384600124A7E70120906080251D4800
S1130BD0EC038460012472E719480125556001245F
S1130BE085605CE7586B00245C6500281EDB80256B
S1130BF014482C04846068E7986B00249C650028E2
S1130C000FDB80250F48AC0384608BE71D6901204E
S1130C1018651D6346E70A4C022565601FE75060AE
S1130C20A3E780250748AC0344607BE7802505489B
S1130C302C04446049E7C04680F0FF1F00F0FF1F0A
S1130C4040F00F4000F10F40002934D0012300226E
S1130C5010B488422CD301242407A14204D2814237
S1130C6002D209011B01F8E7E400A14204D2814247
S1130C7002D249005B00F8E7884201D3401A1A43C4
S1130C804C08A04202D3001B5C0822438C08A042FB
S1130C9002D3001B9C082243CC08A04202D3001BB1
S1130CA0DC082243002803D01B0901D00909E3E72B
S1130CB0101C10BC7047002801D00020C04307B4AA
S1130CC0024802A14018029003BDC046190000006A
S1130CD00029F0D003B5FFF7B9FF0EBC4243891ACF
S1130CE01847C0467047C046002103E00A4B5B58D2
S1130CF04350043109480A4B42189A42F6D3094A30
S1130D0002E0002313600432074B9A42F9D3FFF741
S1130D10C3FD00F00BF870471015000000F0FF1F32
S1130D2014F0FF1F20F0FF1FE0F0FF1FF0B55F4637
S1130D3056464D464446F0B4DF4A002087B0DF49AA
S1130D4002900390049005905458F8239D01254384
S1130D505550DB48DB4EDC4980277B00DB4C33619C
S1130D6073613363C3608362C3620B616769D84E86
S1130D700D1C88463E40D74966614E69D64C8C4668
S1130D803440D64E4C617769D54C10218F4377613E
S1130D90D4492360D44F6360A3606362A362E362B7
S1130DA003606B60EB60D14DAB60EB602B616B61FA
S1130DB02B656B65AB65EB656B67B9600A21B16048
S1130DC08B46CB4DCB498D608125AD007D60894636
S1130DD0012561464D60C84D291C4D4669607969FD
S1130DE0C64D0D437D61654669690D1C01210D43A6
S1130DF061464D617569291C5D4629437161494607
S1130E004D69BF49AB460D1C59460D4349464D61DA
S1130E10AA4D5159A025894669014D462943A74D3C
S1130E2051514146A364E3644B607D69C021A846E7
S1130E300D034146AA460D437D61756902210D43A8
S1130E40756155467D607160AE4E80259759884620
S1130E50B446311C2E043E435650AB4EC0214F00C5
S1130E60BB468025F759E9030F435D467751376840
S1130E708C250F433760A54F002139606900002598
S1130E807D508A46A24D882149007D5045465146F1
S1130E907D508E2501216D00795151467D580121E7
S1130EA00D4351467D506546575941460F435751AE
S1130EB082256F01D1590D1C1D43D5515D467759CB
S1130EC001210F4377513568924F0D433560924E9F
S1130ED08225F750914BBB466F00F351994680270A
S1130EE084235D00790420237151862773518C4D2E
S1130EF08C4B79007550102700251D701F701978D0
S1130F0080256F4220253943A846C9B2C8448825A4
S1130F1019706D00414671518A2149005D46755032
S1130F2080214D0451467550202575507E498E25EB
S1130F306D007151002511265D705E7059780F4364
S1130F40FFB25F70794B8021D658CF033E435B4993
S1130F50D650565880231F01754B374357501D7088
S1130F608025AE002427C6618661466106615F70F4
S1130F701D7840262E431E706346D75880252E05C3
S1130F803E436346D6505758C0252E013E43565023
S1130F900021E1608160416066481F220824072324
S1130FA08260C46001624362476A80253D434562B2
S1130FB0061C8021706A5F4B0142FBD15A6A5706B6
S1130FC000D5E0E19F6BDE6C9D6CF1195C6C4F19F0
S1130FD0186C3E19DA6B3518AC18802260081202BE
S1130FE01043D862996DDF6E9E6E79185D6E8F190D
S1130FF01C6E7E19D86D35192C18600802431A63CB
S11310002D4B404FC025DE59AC0434432B4ADC51F0
S1131010985890214F0107439F50474D2A4FFA2675
S113102080200024B1012822C6002C606C60EC6092
S11310306C63A960EA602C616A63AC633E607E61A4
S11310403E4E08222A60346074607461B1602C21C1
S11310507161C0271B49B800B461486333483260EA
S11310601F5840210F431F50354B80279C709971A6
S11310701349BF000220D8704F620F625C719C71EB
S11310801A725C70FFF78EFC1A4B202216498020DE
S11310905A60800504224A6058604F605A60254FA8
S11310A02C61AC634D46B4612C640024BA46261C02
S11310B0A34600254F4664E0007004403810000049
S11310C000B004400090044000C0044000F00F4011
S11310D0CFEFFFFF80F00F40F7F3FFFFC0F00F40AA
S11310E000A00440030C000040F00F4000D0044076
S11310F01800F00000F10F4024000020070E00004B
S11311003C00F0203C10000000E100E000700340CF
S11311102B010000056007400080004020F0FF1F05
S113112080021AE000100240802052603410000057
S11311300060074000B0034000800340009003407B
S11311400060064000263E643968914B994200D104
S1131150FBE000D98FE08F4CA14200D1CAE0A0216E
S11311608D4E0902281CFFF7B3FD0135002902D179
S11311708A480224C4608A4A8A4B5521AA24D15041
S1131180D45051460B6A180612D40A6958460123F2
S1131190810002AC9B4462505A46022A00D190E07E
S11311A0032A00D187E0012A02D10B2051460860AE
S11311B07D4C23691A071FD5012262604C46206CBE
S11311C00028BFD1002E50D1FFF7ECFB774B784CB1
S11311D020218020596004228105802062605960AA
S11311E0810061605A60734C734B1E619E63A661FB
S11311F0F02200261102B5E748462430FFF7BAFB77
S11312006E4B01211869020B644811400269019177
S1131210101C10210840421E9041019A40001043C6
S1131220804618691B690140481E81418A0098065E
S1131230414623691143C20FD0001A050143D00F60
S11312402269030150051943C30F5A01114348464B
S113125041630299039A0B04134383630498494638
S113126003040122CB63A260A8E7013E002EBFD095
S1131270A020010276E7524A914226D0514B99426E
S113128000D06CE73968CC433C627E68F0437862F6
S1131290BA68D343BB62F968CC43FC623E69F0434D
S11312A038637A69D3437B63B969CC43BC63FE6911
S11312B0F043F86353E70D24534600221C60934621
S11312C076E70F205146086072E7FFF76BFB374B58
S11312D03749202280205A600424820580204C60F3
S11312E05A6082004A605C603249334B1E619E63DF
S11312F08E6134E73448FFF745FB7B6920202B4A95
S1131300DE073ED5906004262949980737D58E60BC
S113131059072FD58026254CB105A1608020860071
S11313201A071FD5224904208E60DC061FD41F4BE8
S113133058604E46B069204A0304010C1C0C11612C
S11313409463F68B1B48866109E77868FFF724FBF2
S1131350BE68194A3404174B200C90609860FFF75C
S113136021FBFCE6124A04205660DC06DFD50F4C54
S1131370A060DEE780240D4AA0055060CEE74E60F1
S1131380C6E75060BFE780230949DA028A6037E67E
S11313903E4346473E434D441F4E0000C0F00F40BD
S11313A0007004400411000080F00F4000F10F4071
S11313B040F00F40009003400080034000F00F40D5
S11313C03E5253543E54535424F0FF1FF0B54F463D
S11313D04646C0B40F2A72D90B1C03439C0700D0A5
S11313E090E0171C103F3C09013427010C683B1C9A
S11313F00460103BDE064B68CD1943608C68F60F21
S11314008460CB68041CC3600B1C103310349D42F1
S113141027D0002E0BD0196821605E686660996839
S1131420A160DE681033E66010349D4219D019685B
S113143021605E6866609968A160DE68191CE660D8
S11314401B69261C23614C6974618B69B361CC6987
S11314501031F4610B1C1036341C103310349D42CF
S1131460E5D13F180F21B846114003294DD904395D
S11314708E08B3000433EC18A446043B2C1C5F070D
S113148008CC4146B14608C1FE0F64450FD0002E7A
S113149003D080CC80C1644509D0271C08CF0E1C22
S11314A008C664684C603C1D311D6445F5D149464D
S11314B001318E000327AD193A40464401E00D1C6A
S11314C0061C002A1AD02F78B218F343D11801242D
S11314D0377001360C40013596420FD0002C05D0F0
S11314E02B78013533700136964207D02978317054
S11314F06C780235747002369642F7D10CBC904673
S11315009946F0BD061C0D1CDDE73E1C0A1CD8E7FD
S113151001000000010000000000000000000000C5
S107152000000000C3
S11315241015000000F0FF1F14000000000000006C
S10B15340000000000000000AB
S9030CE907
